:100000000C9463000C948B000C948B000C94AD0347
:100010000C94AD030C94AD030C948B000C948B00EA
:100020000C948B000C948B000C948B000C948B0024
:100030000C948B000C948B000C948B000C948B0014
:100040000C94A5020C948B000C947B030C94550328
:100050000C948B000C948B000C948B000C948B00F4
:100060000C948B000C948B000000000024002700EF
:100070002A0000000008000201000003040700003D
:1000800000000000000000000000230026002900FE
:10009000010204081020408001020408102001021F
:1000A0000408102000000000250028002B00040494
:1000B0000404040404040202020202020303030310
:1000C0000303AA0C7B0C11241FBECFEFD8E0DEBFC8
:1000D000CDBF24E0AAEBB1E001C01D92AF39B20759
:1000E000E1F711E0A0E0B1E0E4E2F2E202C0059045
:1000F0000D92AA3BB107D9F710E0C2E6D0E004C0E8
:100100002197FE010E94030FC136D107C9F70E9453
:1001100022070C9405110C940000CF92DF92EF920D
:10012000FF920F931F93CF93DF936C017A018B01A2
:10013000C0E0D0E0CE15DF0581F0D8016D918D01D2
:10014000D601ED91FC910190F081E02DC601099559
:10015000892B11F02196EECF7E01C701DF91CF915F
:100160001F910F91FF90EF90DF90CF900895FC01C9
:10017000538D448D252F30E0842F90E0821B930B0C
:10018000541710F0CF96089501970895FC01918DB2
:10019000828D981761F0828DDF01A80FB11D5D96E9
:1001A0008C91928D9F5F9F73928F90E008958FEF57
:1001B0009FEF0895FC01918D828D981731F0828D0B
:1001C000E80FF11D858D90E008958FEF9FEF089562
:1001D000FC01918D228D892F90E0805C9F4F821BC6
:1001E00091098F739927089583E192E00E94E800B6
:1001F00021E0892B09F420E0822F0895FC01848DF1
:10020000DF01A80FB11DA35ABF4F2C91848D90E040
:1002100001968F739927848FA689B7892C93A0891B
:10022000B1898C91837080648C93938D848D9813A5
:1002300006C00288F389E02D80818F7D8083089538
:10024000EF92FF920F931F93CF93DF93EC0181E026
:10025000888F9B8D8C8D981305C0E889F9898081E2
:1002600085FD26C0F62E0B8D10E00F5F1F4F0F731C
:100270001127E02E8C8DE8120CC00FB607FCFACFC8
:10028000E889F989808185FFF5CFCE010E94FE00C3
:10029000F1CF8B8DFE01E80FF11DE35AFF4FF08285
:1002A0009FB7F8940B8FEA89FB89808180620AC02E
:1002B0009FB7F894EE89FF896083E889F989808186
:1002C0008370806480839FBF81E090E0DF91CF9155
:1002D0001F910F91FF90EF900895CF93DF93EC0162
:1002E000888D8823C9F0EA89FB89808185FD05C056
:1002F000A889B9898C9186FD0FC00FB607FCF5CF90
:10030000808185FFF2CFA889B9898C9185FFEDCFD7
:10031000CE010E94FE00E7CFDF91CF91089580E0EB
:1003200090E0892B29F00E94F40081110C940000C8
:1003300008952091FC013091FD012817390771F4CF
:100340009091FA018091FB01981741F0E091FA0138
:10035000F0E0E654FE4F808190E008958FEF9FEF2C
:10036000089508951F93CF93DF93DC015C968D91E0
:100370009C915D97009739F421E030E013963C930F
:100380002E9312973BC05196ED91FC915297509647
:100390002C915097322F30951FB75E964C915E97F7
:1003A000742F727041FD6095F8944081772311F0AD
:1003B000422B01C043234083EC012197F1F748E031
:1003C000508160FF02C0522B01C053235083EC01C7
:1003D0002197F1F76695415099F78081772319F0BD
:1003E0008323808302C0282B20831FBF5C968D91BE
:1003F0009C915D970197F1F781E090E0DF91CF91BB
:100400001F9108952091FC013091FD0128173907B3
:1004100071F48091FB012091FA0190E0805C9F4F84
:10042000821B910960E470E00E94B90E089580E09B
:1004300090E008952091FC013091FD0128173907C3
:10044000B9F49091FA018091FB01981789F0E0913D
:10045000FA01F0E0E654FE4F80812091FA0130E08D
:100460002F5F3F4F2F7333272093FA0190E00895B9
:100470008FEF9FEF0895089580E090E00895FC01CC
:100480008281938101970E945D040C94D1040E94A3
:10049000F010FC0180819181009711F00C94460EC0
:1004A00060E070E0CB010895FC01808191810C94A3
:1004B000A10F0F931F93CF93DF93EC018881998154
:1004C000009729F02A813B812617370788F48B0192
:1004D0006F5F7F4F0E942A10009761F09983888395
:1004E0001B830A832C813D81232B11F4FC01108294
:1004F00081E001C080E0DF91CF911F910F910895BD
:100500003FB7F89480910F0290911002A0911102D0
:10051000B091120226B5A89B05C02F3F19F0019695
:10052000A11DB11D3FBFBA2FA92F982F8827820F79
:10053000911DA11DB11DBC01CD0142E0660F771FC9
:10054000881F991F4A95D1F708951F920F920FB6F1
:100550000F9211242F933F938F939F93AF93BF9349
:1005600080910B0290910C02A0910D02B0910E02AD
:1005700030910A0223E0230F2D3720F40196A11DAC
:10058000B11D05C026E8230F0296A11DB11D2093C1
:100590000A0280930B0290930C02A0930D02B09379
:1005A0000E0280910F0290911002A0911102B09161
:1005B00012020196A11DB11D80930F0290931002AB
:1005C000A0931102B0931202BF91AF919F918F91AE
:1005D0003F912F910F900FBE0F901F901895EF92A3
:1005E000FF920F931F93CF93DF93EC017B018A015E
:1005F000BA010E9459022881398181110DC021154B
:10060000310519F0C9010E94A10F198218821D82BB
:100610001C821B821A8206C01D830C83B701C9018C
:100620000E94FE10CE01DF91CF911F910F91FF909C
:10063000EF900895CF93DF93EC016115710559F0A8
:10064000FB0101900020E9F73197AF01461B570BE2
:100650000E94EF020CC088819981009711F00E94DE
:10066000A10F198218821D821C821B821A82CE0160
:10067000DF91CF910895FB01DC0111961C921E922F
:1006800013961C921E92129715961C921E92149706
:100690008617970749F0608171816115710521F016
:1006A000448155810C94EF0208951F920F920FB66A
:1006B0000F9211242F933F934F935F936F937F93E8
:1006C0008F939F93AF93BF93EF93FF9383E192E058
:1006D0000E94FE00FF91EF91BF91AF919F918F918A
:1006E0007F916F915F914F913F912F910F900FBE2E
:1006F0000F901F9018951F920F920FB60F92112412
:100700002F938F939F93EF93FF93E0912302F091A8
:1007100024028081E0912902F0912A0282FD12C018
:10072000908180912C028F5F8F7320912D02821710
:1007300051F0E0912C02F0E0ED5EFD4F958F80933B
:100740002C0201C08081FF91EF919F918F912F9199
:100750000F900FBE0F901F9018951F920F920FB61B
:100760000F9211242F933F934F935F936F937F9337
:100770008F939F93AF93BF93EF93FF93E091FC010F
:10078000F091FD01309709F451C0968DA685B7858B
:10079000858591FF04C09C91892329F447C09C91D1
:1007A000892309F043C0A389B4899C9185898095E8
:1007B00089238C93868997890197F1F7608D718DD4
:1007C000A685B785558538E020E0CB010197F1F784
:1007D000822F90E095958795282F4C91452309F01D
:1007E0002068315091F7868D81FD20958091FB0125
:1007F00090E001968F7399273091FA01381749F0EC
:10080000A091FB01B0E0A654BE4F2C938093FB0156
:1008100003C0868D8160868F828D938D0197F1F75D
:10082000A389B4899C918589892B8C93FF91EF9141
:10083000BF91AF919F918F917F916F915F914F91F8
:100840003F912F910F900FBE0F901F9018958330FE
:1008500081F028F4813099F08230A1F0089587303A
:10086000A9F08830B9F08430D1F4809180008F7D78
:1008700003C0809180008F7780938000089584B5B5
:100880008F7702C084B58F7D84BD08958091B000BC
:100890008F7703C08091B0008F7D8093B000089562
:1008A000FC0111821082138212821582148240E0B0
:1008B00050E06CE271E00C94EF028F929F92AF9245
:1008C000BF92CF92DF92EF92FF92CF93DF9320916E
:1008D0008704309188048217930708F057C04B01B2
:1008E000AA24BB24F82DC52ED62EE72EFF24AC2D2E
:1008F000E42F20918D04222361F0829E4001112477
:10090000F92D2C9D60011124AD2D249FE0011124AF
:10091000ED2F30919304B0919004E0908E04F0900C
:100920008F043B1308C09C01220F331F820F931FBB
:100930008E0D9F1D19C0880F991F880F991F8E0D4E
:100940009F1D472F552766277727EC01C30FD11D21
:10095000222349F030E0249F7001259FF00C349F42
:10096000F00C11244F2D488320919004EC01C20F0C
:10097000D11DF88320919104EC01C20FD11DA883F1
:1009800020919204DC01A20FB11DEC93DF91CF9175
:10099000FF90EF90DF90CF90BF90AF909F908F909F
:1009A0000895CF92DF92EF92FF920F931F93CF9310
:1009B000DF93CDB7DEB729970FB6F894DEBF0FBE31
:1009C000CDBF80918E0490918F04892B09F4BBC018
:1009D000C0909404D0909504E0909604F090970411
:1009E0000E9480026C157D058E059F0550F40E94C3
:1009F000800260939404709395048093960490937E
:100A000097040E9480020091940410919504209113
:100A1000960430919704DC01CB01801B910BA20B53
:100A2000B30B8C329140A105B10590F2F8948091FE
:100A3000890490918A049A838983E0918E04F091CD
:100A40008F04DF0111968081898790918504E09160
:100A50009804F091990480919A04992309F42EC086
:100A60009081982B98879081809589238F838F819F
:100A70008C8388E08B8358856F8149853B812C81ED
:100A800089819A81508347FD252F3A952083262F0F
:100A900039F0441F00C000006083000000C0F2CFA6
:100AA00038E04D9160830000019761F7F09399045D
:100AB000E093980449873B832C8338C09081982B1E
:100AC00098879081809589238F838F818E8388E09A
:100AD0008D8358856F8149853D812E8189819A81D9
:100AE000508347FD252F00C000C0208300C000C0F8
:100AF00000C000C000C060830000262F3A9541F07E
:100B0000441F000000C000C000C000C000C0E8CF0B
:100B100038E04D9100C0608300C0019709F7F09361
:100B20009904E093980449873D832E839A838983AF
:100B300078940E948002609394047093950480934B
:100B400096049093970429960FB6F894DEBF0FBED3
:100B5000CDBFDF91CF911F910F91FF90EF90DF906C
:100B6000CF9008958F929F92AF92BF92CF92DF92D3
:100B7000EF92FF920F931F93CF93DF938C01EB01C2
:100B8000AC80BD80D501119720E030E08FEF9FEF62
:100B9000E12CF12C60E070E0922E832EA217B307B7
:100BA0007CF14617570744F45C0167018E159F05D9
:100BB00070F56C0157012BC0F90131966F012A15B0
:100BC0003B0548F4E881F981309729F0E20FF31FE3
:100BD000E081EC3231F0A217B30719F0982E892E7C
:100BE0000BC06F5F7F4F7C01FFEFEF1AFF0AA21768
:100BF000B30711F49C2C8D2C9601892D982DCCCF08
:100C0000461757078CF2C8010E9450041FC0C80144
:100C10000E945004EC80FD80CE14DF04B8F4AE14C2
:100C2000BF0408F47501E881F981EE0DFF1DB08065
:100C30001082688179816C0D7D1DC8010E941A03A4
:100C400088819981FC01EE0DFF1DB082C801DF9102
:100C5000CF911F910F91FF90EF90DF90CF90BF90B9
:100C6000AF909F908F900895009769F0FC010190DC
:100C70000020E9F73197AF01481B590BBC0183E114
:100C800092E00C948D0080E090E00895CF93DF9384
:100C90000E943406EC018AE291E00E9434068C0F37
:100CA0009D1FDF91CF910895CF93DF93282F30E0E0
:100CB000F901EE58FF4F8491F901E057FF4FD491AD
:100CC000F901E255FF4FC491CC2391F081110E94AC
:100CD0002704EC2FF0E0EE0FFF1FEA57FF4FA5911E
:100CE000B491EC91ED2381E090E021F480E002C02A
:100CF00080E090E0DF91CF9108951F93CF93DF9331
:100D0000282F30E0F901EE58FF4F8491F901E057A8
:100D1000FF4FD491F901E255FF4FC491CC23C1F0AC
:100D2000162F81110E942704EC2FF0E0EE0FFF1F19
:100D3000EC55FF4FA591B4919FB7F894111104C0E1
:100D40008C91D095D82302C0EC91DE2BDC939FBF11
:100D5000DF91CF911F910895CF93DF9390E0FC0135
:100D6000E057FF4F2491FC01E255FF4F8491882307
:100D700061F190E0880F991FFC01E859FF4FC59180
:100D8000D491FC01EC55FF4FA591B491611109C0BC
:100D90009FB7F8948881209582238883EC912E2335
:100DA0000BC0623061F49FB7F8948881322F309580
:100DB00083238883EC912E2B2C939FBF06C08FB783
:100DC000F894E8812E2B28838FBFDF91CF9108956F
:100DD0008F929F92AF92BF92CF92DF92EF92FF924B
:100DE0006B017C010E9480024B015C01C114D104A3
:100DF000E104F104F1F00E948002DC01CB018819CA
:100E00009909AA09BB09883E9340A105B10570F371
:100E100021E0C21AD108E108F10888EE880E83E0CB
:100E2000981EA11CB11CC114D104E104F10419F7EE
:100E3000DDCFFF90EF90DF90CF90BF90AF909F906D
:100E40008F900895CF93DF93CDB7DEB7C755D10903
:100E50000FB6F894DEBF0FBECDBF789484B5826024
:100E600084BD84B5816084BD85B5826085BD85B54E
:100E7000816085BD80916E00816080936E001092CC
:100E80008100809181008260809381008091810047
:100E900081608093810080918000816080938000D8
:100EA0008091B10084608093B1008091B000816036
:100EB0008093B00080917A00846080937A00809162
:100EC0007A00826080937A0080917A0081608093BA
:100ED0007A0080917A00806880937A001092C10035
:100EE00061E08DE00E94AC0687E00E945406019705
:100EF00049F48091FF0190910002019690930002C5
:100F00008093FF0186E00E945406019749F4809186
:100F1000FF01909100020296909300028093FF01DE
:100F200085E00E945406019749F48091FF01909159
:100F300000020496909300028093FF018091FF01CC
:100F4000909100020197049720F0109200021092F5
:100F5000FF01E0912302F091240282E08083E0917E
:100F60001F02F09120021082E0912102F0912202F2
:100F70008FEC808310922B02E0912702F0912802DF
:100F800086E08083E0912502F091260280818061D5
:100F90008083E0912502F091260280818860808321
:100FA000E0912502F0912602808180688083E091A3
:100FB0002502F091260280818F7D8083C090FF0101
:100FC000D09000020D2C000CEE08FF08F7FE25C0A3
:100FD0006DE283E192E00E94200122273327A901DC
:100FE0002C193D094E095F0919A28E010F5D1F4F93
:100FF0009AE0C92ED12CE12CF12CCA01B901A7012C
:1010000096010E94CD0E605DF80162938F0121155B
:1010100031054105510589F71AC0A701960119A2AA
:101020008E010F5D1F4F8AE0C82ED12CE12CF12CD0
:10103000CA01B901A70196010E94CD0E605DF801B9
:1010400062938F01211531054105510589F7C801CA
:101050000E9434068AE291E00E9434068091FF01EA
:1010600090910002019721F48DE291E00E944606E2
:101070008091FF0190910002029721F485E591E0B3
:101080000E9446068091FF0190910002039721F48F
:1010900081E891E00E9446068091FF019091000254
:1010A000049721F488EA91E00E94460661E08DE011
:1010B0000E94AC0661E083E00E94AC061092F90247
:1010C0001092F8021092F7021092F6021092F502B6
:1010D0001092F4028DE991E09093FB028093FA0262
:1010E0009091EA02963108F058C02DEB30E0309331
:1010F000F5022093F4022BE931E03093F7022093BC
:10110000F6022CE231E03093F9022093F80240918C
:101110006800983058F031E09E3008F430E021E06B
:10112000822F01C0880F3A95EAF701C084E0842B32
:1011300080936800983038F09E3040F0963148F047
:1011400020E030E008C02DE630E005C02BE630E0BE
:1011500002C02CE630E03093F2022093F102983086
:1011600030F481E001C0880F9A95EAF70EC0292F6C
:1011700030E09E3018F42850310902C02E50310959
:1011800081E001C0880F2A95EAF78093F3028091ED
:10119000FA029091FB020197F1F78091F802909189
:1011A000F902892B49F1E091FC01F091FD0122E067
:1011B000EE3DF20709F1309739F0A389B4899C918B
:1011C0008589809589238C938091FC028E7F809302
:1011D000FC021092FB011092FA018EED92E09093C6
:1011E000FD018093FC01E091F102F091F202908107
:1011F0008091F302892B80838091FF0190910002FE
:101200009093B1028093B0028DEF92E09093D70259
:101210008093D60280918B0490918C0497FD08C036
:1012200061E00E94AC0660E080918B040E947D0624
:1012300081E0809386048091B0029091B102009782
:1012400009F05FC014E0E12EF12C8091BE02909174
:10125000BF02A091C002B091C1028093B2029093EC
:10126000B302A093B402B093B50200E010E0409145
:10127000B2025091B3026091B4027091B5028091B4
:10128000D6029091D702800F911F0E943F020F5CFF
:101290001F4F083881E0180751F764EF71E080E0D4
:1012A00090E00E94E80600E010E04091B602509104
:1012B000B7026091B8027091B9028091D602909104
:1012C000D702800F911F0E943F020F5C1F4F08380A
:1012D000E1E01E0751F764EF71E080E090E00E94CA
:1012E000E806F1E0EF1AF10809F0AFCF9FE088E1DE
:1012F0000FB6F894A895809360000FBE909360009D
:101300001BC18130910549F48091C2029091C302C2
:10131000A091C402B091C50222C08230910549F467
:101320008091C6029091C702A091C802B091C902F3
:1013300016C08330910549F48091CE029091CF027E
:10134000A091D002B091D1020AC0049781F480919B
:10135000CA029091CB02A091CC02B091CD028093B1
:10136000B2029093B302A093B402B093B50200E02E
:1013700010E04091B2025091B3026091B4027091BA
:10138000B5028091D6029091D702800F911F0E94E2
:101390003F0264E670E080E090E00E94E8060F5CA7
:1013A0001F4F083821E0120721F74091B6025091F3
:1013B000B7026091B8027091B9028091D602909103
:1013C000D702800F911F0E943F0264E670E080E028
:1013D00090E00E94E806015311090F3C8FEF1807B7
:1013E00021F784CF8DE00E94540661E0892B09F03B
:1013F00060E08DE00E947D068091020290910302E0
:10140000A0910402B09105020196A11DB11D809327
:10141000020290930302A0930402B093050210927B
:1014200006021092070210920802109209028EED35
:1014300092E00E940202892B09F098C0809101027B
:10144000882309F462C068ED72E0CE018E5A9F4F86
:101450000E943B038DEF92E09093D7028093D602D7
:10146000A12CB12C99249394BE016E5A7F4FCE01CA
:10147000845B9F4F0E943B030091D6021091D702DC
:10148000BE01645B7F4FCE0101960E943B0340E0AA
:1014900050E0BE016F5F7F4FCE018A5B9F4F0E947D
:1014A000B205CE0101960E945402CE018A5B9F4F85
:1014B0000E9449028091FF0190910002681779070C
:1014C00009F494C0672B09F491C0CE018A5B9F4F49
:1014D0000E945402CE01845B9F4F0E945402F1E3AC
:1014E000AF0EB11C28E8A21621E0B20609F0BCCF6D
:1014F000CE018E5A9F4F0E9454026CE271E088ED3B
:1015000092E00E941A03109201020DEF12E045E8EA
:10151000E42E44E0F42EDD24D394F8018785811174
:1015200070C1808981116DC10F5C1F4FE016F106FB
:10153000A1F7A8950E948F01809106029091070261
:10154000A0910802B09109020196A11DB11D8093DE
:10155000060290930702A0930802B0930902813A11
:101560009648A140B1050CF462CF3CCF60E08DE01D
:101570000E947D068EED92E00E941A02182F809341
:10158000FE0189831A82E090DC02F090DD02FFEF19
:10159000EF1AFF0AB70188ED92E00E9459028823F2
:1015A00099F02091D8023091D9028091DC0290917B
:1015B000DD02BE016F5F7F4F820F931F0E94FE10FE
:1015C000F092DD02E092DC02123049F46CE271E04C
:1015D00088ED92E00E941A031092010228CF133086
:1015E00009F025CF81E08093010228CF0A0D1B1D51
:1015F000BE01645B7F4FCE0101960E943B0342E037
:1016000050E0BE016F5F7F4FCE01805C9F4F0E9414
:10161000B205CE0101960E945402CE01805C9F4F1C
:101620000E944902F801828193816817790719F0B5
:10163000672B09F0E0C0BE01645B7F4FCE010196CD
:101640000E943B0341E050E0BE016F5F7F4FCE013F
:10165000CA960E94B205CE0101960E945402CE01A4
:10166000CA960E944902F80171836083BE01645BDF
:101670007F4FCE0101960E943B0343E050E0BE0144
:101680006F5F7F4FCE01C4960E94B205CE010196D6
:101690000E945402CE01C4960E9449022B013C01D3
:1016A000BE01645B7F4FCE0101960E943B0344E084
:1016B00050E0BE016F5F7F4FCE018E960E94B20553
:1016C000CE0101960E945402CE018E960E944902DC
:1016D0006B017C01BE01645B7F4FCE0101960E94CD
:1016E0003B0345E050E0BE016F5F7F4FCE0188961F
:1016F0000E94B205CE0101960E945402CE01889646
:101700000E944902862E372EBE01645B7F4FCE01B8
:1017100001960E943B0346E050E0BE016F5F7F4FA1
:10172000CE0182960E94B205CE0101960E9454021B
:10173000CE0182960E944902F80127856130710529
:1017400089F4211120C02FB7F89480910B02909159
:101750000C02A0910D02B0910E022FBF95838483DD
:10176000978611C0222379F02FB7F89480910B024D
:1017700090910C02A0910D02B0910E022FBFF801C2
:10178000958384831786F80151864086D386C28666
:10179000882D932D95878487B301A201552766274D
:1017A0007727BA0155274427DD24EE24FF24FE2C99
:1017B000ED2CDC2CCC244C295D296E297F2948296D
:1017C0008281938101970E945D040E94D104CE0121
:1017D00082960E945402CE0188960E945402CE0145
:1017E0008E960E945402CE01C4960E945402CE01ED
:1017F000CA960E945402CE01805C9F4F0E94540200
:1018000064CE2FB7F89480910B0290910C02A091B6
:101810000D02B0910E022FBFF801978386832481B9
:101820003581821B930B8C32914008F47DCEF801F8
:1018300026852D25268782819381213069F4208594
:10184000428550E060E070E0762F652F542F4427EA
:10185000622B2485422B03C040E050E0BA0101977F
:101860000E945D040E94D104F801868197819583CE
:1018700084835ACEFC011686118A128A138A148A2E
:1018800084E690E0DC01858B968BA78BB08F80E09F
:1018900090E0A4E6B0E0818F928FA38FB48F80E0B8
:1018A00094E6A0E0B0E0858F968FA78FB0A384E682
:1018B00090E0A0E0B0E081A392A3A3A3B4A380E052
:1018C00090E5ADE7B0E085A396A3A7A3B0A780E518
:1018D00090E0DC0181A792A7A3A7B4A784E694E6D1
:1018E000A0E0B0E085A796A7A7A7B0AB73836283FB
:1018F000108A1786089588ED92E00E9454028CE1C8
:1019000091E09093DF028093DE028091FC01909140
:10191000FD018E5D924071F4E091F102F091F202CE
:1019200090818091F3028095892380831092FD013C
:101930001092FC0180918E0490918F040E94A10F5F
:1019400080918B0490918C0497FD03C060E00C940F
:10195000AC060895109216021092150288EE93E0DC
:10196000A0E0B0E08093170290931802A0931902B0
:10197000B0931A028AE091E09093140280931302CC
:1019800085EC90E09093200280931F0284EC90E01D
:10199000909322028093210280EC90E090932402A5
:1019A0008093230281EC90E090932602809325029D
:1019B00082EC90E0909328028093270286EC90E0DE
:1019C00090932A028093290210922C0210922D02E9
:1019D00010922E0210922F021092860410928D0403
:1019E0001092940410929504109296041092970409
:1019F00081E080939304809390041092910492E08C
:101A0000909392048093850488E190E090938A04F7
:101A1000809389040E94090F90938F0480938E0411
:101A2000009761F028E1FC0111922A95E9F788E01E
:101A300090E0909388048093870408C010928A04F1
:101A400010928904109288041092870488E090E034
:101A500090938C0480938B0480918604882341F0BA
:101A600061E088E00E94AC0660E088E00E947D06AC
:101A7000E6EBF0E0E491F0E0EE0FFF1FEC55FF4FD6
:101A8000859194919093990480939804E8E9F0E00B
:101A9000E491E0939A0461E070E08DEF92E00E949F
:101AA0003A0C62E070E08EE293E00E943A0C63E050
:101AB00070E08FE593E00E943A0C64E070E080E90A
:101AC00093E00E943A0C65E070E081EC93E00E94A4
:101AD0003A0C66E070E082EF93E00E943A0C67E017
:101AE00070E083E294E00E943A0C68E070E084E5E4
:101AF00094E00E943A0C1092E1021092E00288EE0B
:101B000093E0A0E0B0E08093E2029093E302A09320
:101B1000E402B093E5028CE191E09093DF028093C0
:101B2000DE021092F5021092F4021092F702109267
:101B3000F6021092F9021092F8021092FB02109233
:101B4000FA026091FC026E7F6D7F6093FC026695E5
:101B5000617081E0682784E00E947D0661E084E096
:101B60000E94AC06E4E9F0E0E491E093EE02E2EBDF
:101B7000F0E0E491F0E0EE0FFF1FEC55FF4F859190
:101B800094919093F0028093EF0260E082E00E94D3
:101B9000AC068091FC0281FD04C061E082E00E94FD
:101BA0007D0682E08093EA02E2E9F0E0E491E093CE
:101BB000EB02E0EBF0E0E491F0E0EE0FFF1FEA57FC
:101BC000FF4F859194919093ED028093EC0288ED04
:101BD00092E00E9450041092B6021092B702109246
:101BE000B8021092B90282E390E0DC018093BA025D
:101BF0009093BB02A093BC02B093BD0280E090E042
:101C0000A2E3B0E08093BE029093BF02A093C00213
:101C1000B093C10280E09AE0A0E0B0E08093C202FD
:101C20009093C302A093C402B093C50282E390E0F4
:101C3000A0E0B0E08093C6029093C702A093C802D0
:101C4000B093C90280E098E2AEE3B0E08093CA02AC
:101C50009093CB02A093CC02B093CD0288E290E0A7
:101C6000DC018093CE029093CF02A093D002B09378
:101C7000D10282E392E3A0E0B0E08093D20290939D
:101C8000D302A093D402B093D50208951F93FC0110
:101C900099278827BC01E89411911032E9F3193093
:101CA00010F01E30C8F31B3251F01D3249F4689415
:101CB00006C00E946D0E610F711D811D911D119155
:101CC00010531A30B0F33EF490958095709561955D
:101CD0007F4F8F4F9F4F1F910895592F482F372FB8
:101CE000262F660F771F881F991F660F771F881F83
:101CF000991F620F731F841F951F660F771F881F20
:101D0000991F08952F923F924F925F926F927F9208
:101D10008F929F92AF92BF92CF92DF92EF92FF92FB
:101D20000F931F93CF93DF93CDB7DEB7CA1BDB0BA7
:101D30000FB6F894DEBF0FBECDBF09942A8839884C
:101D400048885F846E847D848C849B84AA84B98453
:101D5000C884DF80EE80FD800C811B81AA81B9815F
:101D6000CE0FD11D0FB6F894DEBF0FBECDBFED0173
:101D7000089597FB072E16F4009407D077FD09D03D
:101D80000E94EF0E07FC05D03EF4909581959F4F81
:101D90000895709561957F4F0895A1E21A2EAA1BB0
:101DA000BB1BFD010DC0AA1FBB1FEE1FFF1FA2170B
:101DB000B307E407F50720F0A21BB30BE40BF50B08
:101DC000661F771F881F991F1A9469F76095709591
:101DD000809590959B01AC01BD01CF010895AA1B90
:101DE000BB1B51E107C0AA1FBB1FA617B70710F006
:101DF000A61BB70B881F991F5A95A9F78095909538
:101E0000BC01CD010895EE0FFF1F0590F491E02D68
:101E100009940F931F93CF93DF938230910510F4B1
:101E200082E090E0E0919D04F0919E0420E030E09B
:101E3000A0E0B0E0309719F1408151810281138117
:101E400048175907C8F08417950769F4109731F0BF
:101E500012960C93129713961C9327C000939D041F
:101E600010939E0422C02115310519F04217530723
:101E700018F49A01BD01EF01DF01F801DBCF211554
:101E80003105F9F0281B390B2430310580F48A81A3
:101E90009B816115710521F0FB019383828304C04E
:101EA00090939E0480939D04FE01329644C0FE01EF
:101EB000E20FF31F819391932250310939832883D4
:101EC0003AC020919B0430919C04232B41F4209133
:101ED00002013091030130939C0420939B042091D4
:101EE0000001309101012115310541F42DB73EB7B4
:101EF0004091040150910501241B350BE0919B0496
:101F0000F0919C04E217F307A0F42E1B3F0B281757
:101F1000390778F0AC014E5F5F4F2417350748F062
:101F20004E0F5F1F50939C0440939B0481939193A9
:101F300002C0E0E0F0E0CF01DF91CF911F910F915F
:101F40000895CF93DF93009709F481C0FC01329785
:101F500013821282A0919D04B0919E04109781F487
:101F600020813181820F931F20919B0430919C042A
:101F70002817390751F5F0939C04E0939B0467C040
:101F8000ED0120E030E0CE17DF0740F44A815B81AD
:101F90009E0141155105F1F0EA01F5CFD383C283CB
:101FA00040815181840F951FC817D90759F4888142
:101FB0009981840F951F0296918380838A819B81EA
:101FC000938382832115310529F4F0939E04E093D5
:101FD0009D043DC0E901FB83EA8349915991C40FF7
:101FE000D51FEC17FD0761F480819181840F951F47
:101FF0000296E90199838883828193819B838A83F6
:10200000E0E0F0E012968D919C911397009719F003
:10201000FD01DC01F7CF8D919C9111979D012E5F01
:102020003F4F820F931F20919B0430919C042817EF
:10203000390769F4309729F410929E0410929D0498
:1020400002C013821282B0939C04A0939B04DF9180
:10205000CF910895A0E0B0E0E0E3F0E10C94860EAB
:10206000EC01009721F4CB010E94090FB4C0FC01E0
:10207000E60FF71F9C0122503109E217F30708F41D
:10208000A8C0D9010D911C91119706171707B0F040
:102090000530110508F49BC0C801049786179707FF
:1020A00008F495C002501109061B170B01931193F8
:1020B0006D937C93CF010E94A10F89C05B01A01A90
:1020C000B10A4C01800E911EA0919D04B0919E0416
:1020D000612C712CE12CF12C109709F446C08D91E4
:1020E0009C911197A815B905B1F56C0142E0C40E99
:1020F000D11CCA14DB0478F14C018A189B086401D6
:1021000042E0C40ED11C1296BC9012971396AC916B
:10211000B5E0CB16D10440F0B282A38391828082D5
:10212000D9016D937C9309C00E5F1F4F800F911FE3
:10213000F90191838083EB2DFA2FE114F10431F042
:10214000D7011396FC93EE93129741C0F0939E042F
:10215000E0939D043CC06816790608F43C017D01BB
:1021600012960D90BC91A02DB7CF80919B049091B9
:102170009C0488169906E1F466167706C8F48091E7
:10218000000190910101009741F48DB79EB74091F5
:10219000040150910501841B950BE817F907C8F459
:1021A000F0939C04E0939B04F901718360830FC05A
:1021B000CB010E94090F7C01009759F0A801BE01D4
:1021C0000E94F510CE010E94A10FC70104C0CE01EC
:1021D00002C080E090E0CDB7DEB7EEE00C94A20E36
:1021E00081E090E0F8940C940511FB01DC0102C041
:1021F00001900D9241505040D8F70895FB01DC0149
:1022000001900D920020E1F7089510E0C2E6D0E0C1
:1022100004C0FE010E94030F2196C336D107C9F7FF
:04222000F894FFCF60
:1022240000009F0420000000000020018D00B70082
:102234006D01E800C600DA0000000000B2018D0064
:102244003C02B10102021A0299010D0A005365729F
:1022540069616C5F4B69707074697363685F726500
:102264006368747320285075747A73746174696F29
:102274006E2038290053657269616C446562756724
:102284005F4B69707074697363685F6C696E6B73BC
:1022940020285075747A73746174696F6E203929BB
:1022A4000053657269616C44656275675F44726569
:1022B40068746973636820285075747A73746174E0
:1022C400696F6E2031312900285075747A737461F6
:0A22D40074696F6E2031302900009C
:00000001FF
